{
  "_format": "hh-sol-artifact-1",
  "contractName": "MOAP",
  "sourceName": "contracts/MOAP.sol",
  "abi": [
    {
      "inputs": [],
      "stateMutability": "nonpayable",
      "type": "constructor"
    },
    {
      "anonymous": false,
      "inputs": [
        {
          "indexed": true,
          "internalType": "address",
          "name": "owner",
          "type": "address"
        },
        {
          "indexed": true,
          "internalType": "address",
          "name": "approved",
          "type": "address"
        },
        {
          "indexed": true,
          "internalType": "uint256",
          "name": "tokenId",
          "type": "uint256"
        }
      ],
      "name": "Approval",
      "type": "event"
    },
    {
      "anonymous": false,
      "inputs": [
        {
          "indexed": true,
          "internalType": "address",
          "name": "owner",
          "type": "address"
        },
        {
          "indexed": true,
          "internalType": "address",
          "name": "operator",
          "type": "address"
        },
        {
          "indexed": false,
          "internalType": "bool",
          "name": "approved",
          "type": "bool"
        }
      ],
      "name": "ApprovalForAll",
      "type": "event"
    },
    {
      "anonymous": false,
      "inputs": [
        {
          "indexed": true,
          "internalType": "uint256",
          "name": "id",
          "type": "uint256"
        },
        {
          "indexed": true,
          "internalType": "uint256",
          "name": "tokenId",
          "type": "uint256"
        },
        {
          "indexed": true,
          "internalType": "address",
          "name": "claimer",
          "type": "address"
        }
      ],
      "name": "MoapClaimed",
      "type": "event"
    },
    {
      "anonymous": false,
      "inputs": [
        {
          "indexed": true,
          "internalType": "uint256",
          "name": "id",
          "type": "uint256"
        },
        {
          "indexed": true,
          "internalType": "address",
          "name": "creator",
          "type": "address"
        },
        {
          "indexed": false,
          "internalType": "uint256",
          "name": "maxClaims",
          "type": "uint256"
        },
        {
          "indexed": false,
          "internalType": "string",
          "name": "ipfsHash",
          "type": "string"
        }
      ],
      "name": "MoapCreated",
      "type": "event"
    },
    {
      "anonymous": false,
      "inputs": [
        {
          "indexed": true,
          "internalType": "address",
          "name": "previousOwner",
          "type": "address"
        },
        {
          "indexed": true,
          "internalType": "address",
          "name": "newOwner",
          "type": "address"
        }
      ],
      "name": "OwnershipTransferred",
      "type": "event"
    },
    {
      "anonymous": false,
      "inputs": [
        {
          "indexed": true,
          "internalType": "address",
          "name": "from",
          "type": "address"
        },
        {
          "indexed": true,
          "internalType": "address",
          "name": "to",
          "type": "address"
        },
        {
          "indexed": true,
          "internalType": "uint256",
          "name": "tokenId",
          "type": "uint256"
        }
      ],
      "name": "Transfer",
      "type": "event"
    },
    {
      "inputs": [
        {
          "internalType": "address",
          "name": "",
          "type": "address"
        },
        {
          "internalType": "uint256",
          "name": "",
          "type": "uint256"
        }
      ],
      "name": "approve",
      "outputs": [],
      "stateMutability": "pure",
      "type": "function"
    },
    {
      "inputs": [
        {
          "internalType": "address",
          "name": "owner",
          "type": "address"
        }
      ],
      "name": "balanceOf",
      "outputs": [
        {
          "internalType": "uint256",
          "name": "",
          "type": "uint256"
        }
      ],
      "stateMutability": "view",
      "type": "function"
    },
    {
      "inputs": [
        {
          "internalType": "uint256",
          "name": "id",
          "type": "uint256"
        }
      ],
      "name": "claimMOAP",
      "outputs": [
        {
          "internalType": "uint256",
          "name": "",
          "type": "uint256"
        }
      ],
      "stateMutability": "nonpayable",
      "type": "function"
    },
    {
      "inputs": [
        {
          "internalType": "string",
          "name": "hash",
          "type": "string"
        },
        {
          "internalType": "uint256",
          "name": "max",
          "type": "uint256"
        }
      ],
      "name": "createMOAP",
      "outputs": [
        {
          "internalType": "uint256",
          "name": "",
          "type": "uint256"
        }
      ],
      "stateMutability": "nonpayable",
      "type": "function"
    },
    {
      "inputs": [
        {
          "internalType": "uint256",
          "name": "tokenId",
          "type": "uint256"
        }
      ],
      "name": "getApproved",
      "outputs": [
        {
          "internalType": "address",
          "name": "",
          "type": "address"
        }
      ],
      "stateMutability": "view",
      "type": "function"
    },
    {
      "inputs": [
        {
          "internalType": "uint256",
          "name": "id",
          "type": "uint256"
        }
      ],
      "name": "getMOAP",
      "outputs": [
        {
          "components": [
            {
              "internalType": "string",
              "name": "ipfsHash",
              "type": "string"
            },
            {
              "internalType": "uint256",
              "name": "maxClaims",
              "type": "uint256"
            },
            {
              "internalType": "uint256",
              "name": "currentClaims",
              "type": "uint256"
            },
            {
              "internalType": "address",
              "name": "creator",
              "type": "address"
            }
          ],
          "internalType": "struct MOAP.MoapInfo",
          "name": "",
          "type": "tuple"
        }
      ],
      "stateMutability": "view",
      "type": "function"
    },
    {
      "inputs": [
        {
          "internalType": "address",
          "name": "owner",
          "type": "address"
        },
        {
          "internalType": "address",
          "name": "operator",
          "type": "address"
        }
      ],
      "name": "isApprovedForAll",
      "outputs": [
        {
          "internalType": "bool",
          "name": "",
          "type": "bool"
        }
      ],
      "stateMutability": "view",
      "type": "function"
    },
    {
      "inputs": [],
      "name": "name",
      "outputs": [
        {
          "internalType": "string",
          "name": "",
          "type": "string"
        }
      ],
      "stateMutability": "view",
      "type": "function"
    },
    {
      "inputs": [],
      "name": "owner",
      "outputs": [
        {
          "internalType": "address",
          "name": "",
          "type": "address"
        }
      ],
      "stateMutability": "view",
      "type": "function"
    },
    {
      "inputs": [
        {
          "internalType": "uint256",
          "name": "tokenId",
          "type": "uint256"
        }
      ],
      "name": "ownerOf",
      "outputs": [
        {
          "internalType": "address",
          "name": "",
          "type": "address"
        }
      ],
      "stateMutability": "view",
      "type": "function"
    },
    {
      "inputs": [],
      "name": "renounceOwnership",
      "outputs": [],
      "stateMutability": "nonpayable",
      "type": "function"
    },
    {
      "inputs": [
        {
          "internalType": "address",
          "name": "from",
          "type": "address"
        },
        {
          "internalType": "address",
          "name": "to",
          "type": "address"
        },
        {
          "internalType": "uint256",
          "name": "tokenId",
          "type": "uint256"
        }
      ],
      "name": "safeTransferFrom",
      "outputs": [],
      "stateMutability": "nonpayable",
      "type": "function"
    },
    {
      "inputs": [
        {
          "internalType": "address",
          "name": "from",
          "type": "address"
        },
        {
          "internalType": "address",
          "name": "to",
          "type": "address"
        },
        {
          "internalType": "uint256",
          "name": "tokenId",
          "type": "uint256"
        },
        {
          "internalType": "bytes",
          "name": "data",
          "type": "bytes"
        }
      ],
      "name": "safeTransferFrom",
      "outputs": [],
      "stateMutability": "nonpayable",
      "type": "function"
    },
    {
      "inputs": [
        {
          "internalType": "address",
          "name": "",
          "type": "address"
        },
        {
          "internalType": "bool",
          "name": "",
          "type": "bool"
        }
      ],
      "name": "setApprovalForAll",
      "outputs": [],
      "stateMutability": "pure",
      "type": "function"
    },
    {
      "inputs": [
        {
          "internalType": "bytes4",
          "name": "interfaceId",
          "type": "bytes4"
        }
      ],
      "name": "supportsInterface",
      "outputs": [
        {
          "internalType": "bool",
          "name": "",
          "type": "bool"
        }
      ],
      "stateMutability": "view",
      "type": "function"
    },
    {
      "inputs": [],
      "name": "symbol",
      "outputs": [
        {
          "internalType": "string",
          "name": "",
          "type": "string"
        }
      ],
      "stateMutability": "view",
      "type": "function"
    },
    {
      "inputs": [
        {
          "internalType": "uint256",
          "name": "tokenId",
          "type": "uint256"
        }
      ],
      "name": "tokenURI",
      "outputs": [
        {
          "internalType": "string",
          "name": "",
          "type": "string"
        }
      ],
      "stateMutability": "view",
      "type": "function"
    },
    {
      "inputs": [],
      "name": "totalMOAPs",
      "outputs": [
        {
          "internalType": "uint256",
          "name": "",
          "type": "uint256"
        }
      ],
      "stateMutability": "view",
      "type": "function"
    },
    {
      "inputs": [
        {
          "internalType": "address",
          "name": "from",
          "type": "address"
        },
        {
          "internalType": "address",
          "name": "to",
          "type": "address"
        },
        {
          "internalType": "uint256",
          "name": "tokenId",
          "type": "uint256"
        }
      ],
      "name": "transferFrom",
      "outputs": [],
      "stateMutability": "nonpayable",
      "type": "function"
    },
    {
      "inputs": [
        {
          "internalType": "address",
          "name": "newOwner",
          "type": "address"
        }
      ],
      "name": "transferOwnership",
      "outputs": [],
      "stateMutability": "nonpayable",
      "type": "function"
    }
  ],
  "bytecode": "0x608060405234801561001057600080fd5b506040518060400160405280601f81526020017f4d6f6d656e742d4f662d417765736f6d652d50617274696369706174696f6e008152506040518060400160405280600481526020017f4d4f415000000000000000000000000000000000000000000000000000000000815250816000908161008c91906103de565b50806001908161009c91906103de565b5050506100bb6100b06100c060201b60201c565b6100c860201b60201c565b6104b0565b600033905090565b6000600660009054906101000a900473ffffffffffffffffffffffffffffffffffffffff16905081600660006101000a81548173ffffffffffffffffffffffffffffffffffffffff021916908373ffffffffffffffffffffffffffffffffffffffff1602179055508173ffffffffffffffffffffffffffffffffffffffff168173ffffffffffffffffffffffffffffffffffffffff167f8be0079c531659141344cd1fd0a4f28419497f9722a3daafe3b4186f6b6457e060405160405180910390a35050565b600081519050919050565b7f4e487b7100000000000000000000000000000000000000000000000000000000600052604160045260246000fd5b7f4e487b7100000000000000000000000000000000000000000000000000000000600052602260045260246000fd5b6000600282049050600182168061020f57607f821691505b602082108103610222576102216101c8565b5b50919050565b60008190508160005260206000209050919050565b60006020601f8301049050919050565b600082821b905092915050565b60006008830261028a7fffffffffffffffffffffffffffffffffffffffffffffffffffffffffffffffff8261024d565b610294868361024d565b95508019841693508086168417925050509392505050565b6000819050919050565b6000819050919050565b60006102db6102d66102d1846102ac565b6102b6565b6102ac565b9050919050565b6000819050919050565b6102f5836102c0565b610309610301826102e2565b84845461025a565b825550505050565b600090565b61031e610311565b6103298184846102ec565b505050565b5b8181101561034d57610342600082610316565b60018101905061032f565b5050565b601f8211156103925761036381610228565b61036c8461023d565b8101602085101561037b578190505b61038f6103878561023d565b83018261032e565b50505b505050565b600082821c905092915050565b60006103b560001984600802610397565b1980831691505092915050565b60006103ce83836103a4565b9150826002028217905092915050565b6103e78261018e565b67ffffffffffffffff811115610400576103ff610199565b5b61040a82546101f7565b610415828285610351565b600060209050601f8311600181146104485760008415610436578287015190505b61044085826103c2565b8655506104a8565b601f19841661045686610228565b60005b8281101561047e57848901518255600182019150602085019450602081019050610459565b8683101561049b5784890151610497601f8916826103a4565b8355505b6001600288020188555050505b505050505050565b6130e6806104bf6000396000f3fe608060405234801561001057600080fd5b506004361061012c5760003560e01c8063715018a6116100ad578063b88d4fde11610071578063b88d4fde14610355578063c87b56dd14610371578063e01fdef1146103a1578063e985e9c5146103bf578063f2fde38b146103ef5761012c565b8063715018a6146102c357806380fd88cd146102cd5780638da5cb5b146102fd57806395d89b411461031b578063a22cb465146103395761012c565b806323b872dd116100f457806323b872dd146101fb57806341b698911461021757806342842e0e146102475780636352211e1461026357806370a08231146102935761012c565b806301ffc9a714610131578063037692c71461016157806306fdde0314610191578063081812fc146101af578063095ea7b3146101df575b600080fd5b61014b60048036038101906101469190611c71565b61040b565b6040516101589190611cb9565b60405180910390f35b61017b60048036038101906101769190611d0a565b6104ed565b6040516101889190611d46565b60405180910390f35b61019961074e565b6040516101a69190611df1565b60405180910390f35b6101c960048036038101906101c49190611d0a565b6107e0565b6040516101d69190611e54565b60405180910390f35b6101f960048036038101906101f49190611e9b565b610826565b005b61021560048036038101906102109190611edb565b610861565b005b610231600480360381019061022c9190611f93565b6108c1565b60405161023e9190611d46565b60405180910390f35b610261600480360381019061025c9190611edb565b610a7e565b005b61027d60048036038101906102789190611d0a565b610a9e565b60405161028a9190611e54565b60405180910390f35b6102ad60048036038101906102a89190611ff3565b610b24565b6040516102ba9190611d46565b60405180910390f35b6102cb610bdb565b005b6102e760048036038101906102e29190611d0a565b610bef565b6040516102f491906120eb565b60405180910390f35b610305610d18565b6040516103129190611e54565b60405180910390f35b610323610d42565b6040516103309190611df1565b60405180910390f35b610353600480360381019061034e9190612139565b610dd4565b005b61036f600480360381019061036a91906122a9565b610e0f565b005b61038b60048036038101906103869190611d0a565b610e71565b6040516103989190611df1565b60405180910390f35b6103a9610f0a565b6040516103b69190611d46565b60405180910390f35b6103d960048036038101906103d4919061232c565b610f1b565b6040516103e69190611cb9565b60405180910390f35b61040960048036038101906104049190611ff3565b610faf565b005b60007f80ac58cd000000000000000000000000000000000000000000000000000000007bffffffffffffffffffffffffffffffffffffffffffffffffffffffff1916827bffffffffffffffffffffffffffffffffffffffffffffffffffffffff191614806104d657507f5b5e139f000000000000000000000000000000000000000000000000000000007bffffffffffffffffffffffffffffffffffffffffffffffffffffffff1916827bffffffffffffffffffffffffffffffffffffffffffffffffffffffff1916145b806104e657506104e582611032565b5b9050919050565b60008060096000848152602001908152602001600020905060008160000180546105169061239b565b905003610558576040517f08c379a000000000000000000000000000000000000000000000000000000000815260040161054f90612418565b60405180910390fd5b80600101548160020154106105a2576040517f08c379a000000000000000000000000000000000000000000000000000000000815260040161059990612484565b60405180910390fd5b600a600084815260200190815260200160002060003373ffffffffffffffffffffffffffffffffffffffff1673ffffffffffffffffffffffffffffffffffffffff16815260200190815260200160002060009054906101000a900460ff1615610640576040517f08c379a0000000000000000000000000000000000000000000000000000000008152600401610637906124f0565b60405180910390fd5b6001816002016000828254610655919061253f565b925050819055506001600a600085815260200190815260200160002060003373ffffffffffffffffffffffffffffffffffffffff1673ffffffffffffffffffffffffffffffffffffffff16815260200190815260200160002060006101000a81548160ff0219169083151502179055506106cf600861109c565b60006106db60086110b2565b905083600b6000838152602001908152602001600020819055506106ff33826110c0565b3373ffffffffffffffffffffffffffffffffffffffff1681857f8d813d8a65d34a63c6f8cd06a6d6d7578af810e75a904f1f42151f4122ea3b1560405160405180910390a48092505050919050565b60606000805461075d9061239b565b80601f01602080910402602001604051908101604052809291908181526020018280546107899061239b565b80156107d65780601f106107ab576101008083540402835291602001916107d6565b820191906000526020600020905b8154815290600101906020018083116107b957829003601f168201915b5050505050905090565b60006107eb826110de565b6004600083815260200190815260200160002060009054906101000a900473ffffffffffffffffffffffffffffffffffffffff169050919050565b6040517f08c379a0000000000000000000000000000000000000000000000000000000008152600401610858906125bf565b60405180910390fd5b61087261086c611129565b82611131565b6108b1576040517f08c379a00000000000000000000000000000000000000000000000000000000081526004016108a890612651565b60405180910390fd5b6108bc8383836111c6565b505050565b6000808211610905576040517f08c379a00000000000000000000000000000000000000000000000000000000081526004016108fc906126bd565b60405180910390fd5b61090f600761109c565b600061091b60076110b2565b9050604051806080016040528086868080601f016020809104026020016040519081016040528093929190818152602001838380828437600081840152601f19601f820116905080830192505050505050508152602001848152602001600081526020013373ffffffffffffffffffffffffffffffffffffffff168152506009600083815260200190815260200160002060008201518160000190816109c19190612889565b50602082015181600101556040820151816002015560608201518160030160006101000a81548173ffffffffffffffffffffffffffffffffffffffff021916908373ffffffffffffffffffffffffffffffffffffffff1602179055509050503373ffffffffffffffffffffffffffffffffffffffff16817ffdc2968b161a11827afda9b4b26fad51c564811e11e7144b6f314d6e8d85afa0858888604051610a6b93929190612988565b60405180910390a3809150509392505050565b610a9983838360405180602001604052806000815250610e0f565b505050565b600080610aaa836114bf565b9050600073ffffffffffffffffffffffffffffffffffffffff168173ffffffffffffffffffffffffffffffffffffffff1603610b1b576040517f08c379a0000000000000000000000000000000000000000000000000000000008152600401610b1290612a06565b60405180910390fd5b80915050919050565b60008073ffffffffffffffffffffffffffffffffffffffff168273ffffffffffffffffffffffffffffffffffffffff1603610b94576040517f08c379a0000000000000000000000000000000000000000000000000000000008152600401610b8b90612a98565b60405180910390fd5b600360008373ffffffffffffffffffffffffffffffffffffffff1673ffffffffffffffffffffffffffffffffffffffff168152602001908152602001600020549050919050565b610be36114fc565b610bed600061157a565b565b610bf7611bc7565b60096000838152602001908152602001600020604051806080016040529081600082018054610c259061239b565b80601f0160208091040260200160405190810160405280929190818152602001828054610c519061239b565b8015610c9e5780601f10610c7357610100808354040283529160200191610c9e565b820191906000526020600020905b815481529060010190602001808311610c8157829003601f168201915b5050505050815260200160018201548152602001600282015481526020016003820160009054906101000a900473ffffffffffffffffffffffffffffffffffffffff1673ffffffffffffffffffffffffffffffffffffffff1673ffffffffffffffffffffffffffffffffffffffff16815250509050919050565b6000600660009054906101000a900473ffffffffffffffffffffffffffffffffffffffff16905090565b606060018054610d519061239b565b80601f0160208091040260200160405190810160405280929190818152602001828054610d7d9061239b565b8015610dca5780601f10610d9f57610100808354040283529160200191610dca565b820191906000526020600020905b815481529060010190602001808311610dad57829003601f168201915b5050505050905090565b6040517f08c379a0000000000000000000000000000000000000000000000000000000008152600401610e06906125bf565b60405180910390fd5b610e20610e1a611129565b83611131565b610e5f576040517f08c379a0000000000000000000000000000000000000000000000000000000008152600401610e5690612651565b60405180910390fd5b610e6b84848484611640565b50505050565b6060610e7c8261169c565b610ebb576040517f08c379a0000000000000000000000000000000000000000000000000000000008152600401610eb290612b04565b60405180910390fd5b60096000600b6000858152602001908152602001600020548152602001908152602001600020600001604051602001610ef49190612bd8565b6040516020818303038152906040529050919050565b6000610f1660076110b2565b905090565b6000600560008473ffffffffffffffffffffffffffffffffffffffff1673ffffffffffffffffffffffffffffffffffffffff16815260200190815260200160002060008373ffffffffffffffffffffffffffffffffffffffff1673ffffffffffffffffffffffffffffffffffffffff16815260200190815260200160002060009054906101000a900460ff16905092915050565b610fb76114fc565b600073ffffffffffffffffffffffffffffffffffffffff168173ffffffffffffffffffffffffffffffffffffffff1603611026576040517f08c379a000000000000000000000000000000000000000000000000000000000815260040161101d90612c70565b60405180910390fd5b61102f8161157a565b50565b60007f01ffc9a7000000000000000000000000000000000000000000000000000000007bffffffffffffffffffffffffffffffffffffffffffffffffffffffff1916827bffffffffffffffffffffffffffffffffffffffffffffffffffffffff1916149050919050565b6001816000016000828254019250508190555050565b600081600001549050919050565b6110da8282604051806020016040528060008152506116dd565b5050565b6110e78161169c565b611126576040517f08c379a000000000000000000000000000000000000000000000000000000000815260040161111d90612a06565b60405180910390fd5b50565b600033905090565b60008061113d83610a9e565b90508073ffffffffffffffffffffffffffffffffffffffff168473ffffffffffffffffffffffffffffffffffffffff16148061117f575061117e8185610f1b565b5b806111bd57508373ffffffffffffffffffffffffffffffffffffffff166111a5846107e0565b73ffffffffffffffffffffffffffffffffffffffff16145b91505092915050565b8273ffffffffffffffffffffffffffffffffffffffff166111e682610a9e565b73ffffffffffffffffffffffffffffffffffffffff161461123c576040517f08c379a000000000000000000000000000000000000000000000000000000000815260040161123390612d02565b60405180910390fd5b600073ffffffffffffffffffffffffffffffffffffffff168273ffffffffffffffffffffffffffffffffffffffff16036112ab576040517f08c379a00000000000000000000000000000000000000000000000000000000081526004016112a290612d94565b60405180910390fd5b6112b88383836001611738565b8273ffffffffffffffffffffffffffffffffffffffff166112d882610a9e565b73ffffffffffffffffffffffffffffffffffffffff161461132e576040517f08c379a000000000000000000000000000000000000000000000000000000000815260040161132590612d02565b60405180910390fd5b6004600082815260200190815260200160002060006101000a81549073ffffffffffffffffffffffffffffffffffffffff02191690556001600360008573ffffffffffffffffffffffffffffffffffffffff1673ffffffffffffffffffffffffffffffffffffffff168152602001908152602001600020600082825403925050819055506001600360008473ffffffffffffffffffffffffffffffffffffffff1673ffffffffffffffffffffffffffffffffffffffff16815260200190815260200160002060008282540192505081905550816002600083815260200190815260200160002060006101000a81548173ffffffffffffffffffffffffffffffffffffffff021916908373ffffffffffffffffffffffffffffffffffffffff160217905550808273ffffffffffffffffffffffffffffffffffffffff168473ffffffffffffffffffffffffffffffffffffffff167fddf252ad1be2c89b69c2b068fc378daa952ba7f163c4a11628f55a4df523b3ef60405160405180910390a46114ba83838360016117f4565b505050565b60006002600083815260200190815260200160002060009054906101000a900473ffffffffffffffffffffffffffffffffffffffff169050919050565b611504611129565b73ffffffffffffffffffffffffffffffffffffffff16611522610d18565b73ffffffffffffffffffffffffffffffffffffffff1614611578576040517f08c379a000000000000000000000000000000000000000000000000000000000815260040161156f90612e00565b60405180910390fd5b565b6000600660009054906101000a900473ffffffffffffffffffffffffffffffffffffffff16905081600660006101000a81548173ffffffffffffffffffffffffffffffffffffffff021916908373ffffffffffffffffffffffffffffffffffffffff1602179055508173ffffffffffffffffffffffffffffffffffffffff168173ffffffffffffffffffffffffffffffffffffffff167f8be0079c531659141344cd1fd0a4f28419497f9722a3daafe3b4186f6b6457e060405160405180910390a35050565b61164b8484846111c6565b611657848484846117fa565b611696576040517f08c379a000000000000000000000000000000000000000000000000000000000815260040161168d90612e92565b60405180910390fd5b50505050565b60008073ffffffffffffffffffffffffffffffffffffffff166116be836114bf565b73ffffffffffffffffffffffffffffffffffffffff1614159050919050565b6116e78383611981565b6116f460008484846117fa565b611733576040517f08c379a000000000000000000000000000000000000000000000000000000000815260040161172a90612e92565b60405180910390fd5b505050565b600073ffffffffffffffffffffffffffffffffffffffff168473ffffffffffffffffffffffffffffffffffffffff16141580156117a25750600073ffffffffffffffffffffffffffffffffffffffff168373ffffffffffffffffffffffffffffffffffffffff1614155b156117e2576040517f08c379a00000000000000000000000000000000000000000000000000000000081526004016117d990612efe565b60405180910390fd5b6117ee84848484611b9e565b50505050565b50505050565b600061181b8473ffffffffffffffffffffffffffffffffffffffff16611ba4565b15611974578373ffffffffffffffffffffffffffffffffffffffff1663150b7a02611844611129565b8786866040518563ffffffff1660e01b81526004016118669493929190612f73565b6020604051808303816000875af19250505080156118a257506040513d601f19601f8201168201806040525081019061189f9190612fd4565b60015b611924573d80600081146118d2576040519150601f19603f3d011682016040523d82523d6000602084013e6118d7565b606091505b50600081510361191c576040517f08c379a000000000000000000000000000000000000000000000000000000000815260040161191390612e92565b60405180910390fd5b805181602001fd5b63150b7a0260e01b7bffffffffffffffffffffffffffffffffffffffffffffffffffffffff1916817bffffffffffffffffffffffffffffffffffffffffffffffffffffffff191614915050611979565b600190505b949350505050565b600073ffffffffffffffffffffffffffffffffffffffff168273ffffffffffffffffffffffffffffffffffffffff16036119f0576040517f08c379a00000000000000000000000000000000000000000000000000000000081526004016119e79061304d565b60405180910390fd5b6119f98161169c565b15611a39576040517f08c379a0000000000000000000000000000000000000000000000000000000008152600401611a30906130b9565b60405180910390fd5b611a47600083836001611738565b611a508161169c565b15611a90576040517f08c379a0000000000000000000000000000000000000000000000000000000008152600401611a87906130b9565b60405180910390fd5b6001600360008473ffffffffffffffffffffffffffffffffffffffff1673ffffffffffffffffffffffffffffffffffffffff16815260200190815260200160002060008282540192505081905550816002600083815260200190815260200160002060006101000a81548173ffffffffffffffffffffffffffffffffffffffff021916908373ffffffffffffffffffffffffffffffffffffffff160217905550808273ffffffffffffffffffffffffffffffffffffffff16600073ffffffffffffffffffffffffffffffffffffffff167fddf252ad1be2c89b69c2b068fc378daa952ba7f163c4a11628f55a4df523b3ef60405160405180910390a4611b9a6000838360016117f4565b5050565b50505050565b6000808273ffffffffffffffffffffffffffffffffffffffff163b119050919050565b6040518060800160405280606081526020016000815260200160008152602001600073ffffffffffffffffffffffffffffffffffffffff1681525090565b6000604051905090565b600080fd5b600080fd5b60007fffffffff0000000000000000000000000000000000000000000000000000000082169050919050565b611c4e81611c19565b8114611c5957600080fd5b50565b600081359050611c6b81611c45565b92915050565b600060208284031215611c8757611c86611c0f565b5b6000611c9584828501611c5c565b91505092915050565b60008115159050919050565b611cb381611c9e565b82525050565b6000602082019050611cce6000830184611caa565b92915050565b6000819050919050565b611ce781611cd4565b8114611cf257600080fd5b50565b600081359050611d0481611cde565b92915050565b600060208284031215611d2057611d1f611c0f565b5b6000611d2e84828501611cf5565b91505092915050565b611d4081611cd4565b82525050565b6000602082019050611d5b6000830184611d37565b92915050565b600081519050919050565b600082825260208201905092915050565b60005b83811015611d9b578082015181840152602081019050611d80565b60008484015250505050565b6000601f19601f8301169050919050565b6000611dc382611d61565b611dcd8185611d6c565b9350611ddd818560208601611d7d565b611de681611da7565b840191505092915050565b60006020820190508181036000830152611e0b8184611db8565b905092915050565b600073ffffffffffffffffffffffffffffffffffffffff82169050919050565b6000611e3e82611e13565b9050919050565b611e4e81611e33565b82525050565b6000602082019050611e696000830184611e45565b92915050565b611e7881611e33565b8114611e8357600080fd5b50565b600081359050611e9581611e6f565b92915050565b60008060408385031215611eb257611eb1611c0f565b5b6000611ec085828601611e86565b9250506020611ed185828601611cf5565b9150509250929050565b600080600060608486031215611ef457611ef3611c0f565b5b6000611f0286828701611e86565b9350506020611f1386828701611e86565b9250506040611f2486828701611cf5565b9150509250925092565b600080fd5b600080fd5b600080fd5b60008083601f840112611f5357611f52611f2e565b5b8235905067ffffffffffffffff811115611f7057611f6f611f33565b5b602083019150836001820283011115611f8c57611f8b611f38565b5b9250929050565b600080600060408486031215611fac57611fab611c0f565b5b600084013567ffffffffffffffff811115611fca57611fc9611c14565b5b611fd686828701611f3d565b93509350506020611fe986828701611cf5565b9150509250925092565b60006020828403121561200957612008611c0f565b5b600061201784828501611e86565b91505092915050565b600082825260208201905092915050565b600061203c82611d61565b6120468185612020565b9350612056818560208601611d7d565b61205f81611da7565b840191505092915050565b61207381611cd4565b82525050565b61208281611e33565b82525050565b600060808301600083015184820360008601526120a58282612031565b91505060208301516120ba602086018261206a565b5060408301516120cd604086018261206a565b5060608301516120e06060860182612079565b508091505092915050565b600060208201905081810360008301526121058184612088565b905092915050565b61211681611c9e565b811461212157600080fd5b50565b6000813590506121338161210d565b92915050565b600080604083850312156121505761214f611c0f565b5b600061215e85828601611e86565b925050602061216f85828601612124565b9150509250929050565b600080fd5b7f4e487b7100000000000000000000000000000000000000000000000000000000600052604160045260246000fd5b6121b682611da7565b810181811067ffffffffffffffff821117156121d5576121d461217e565b5b80604052505050565b60006121e8611c05565b90506121f482826121ad565b919050565b600067ffffffffffffffff8211156122145761221361217e565b5b61221d82611da7565b9050602081019050919050565b82818337600083830152505050565b600061224c612247846121f9565b6121de565b90508281526020810184848401111561226857612267612179565b5b61227384828561222a565b509392505050565b600082601f8301126122905761228f611f2e565b5b81356122a0848260208601612239565b91505092915050565b600080600080608085870312156122c3576122c2611c0f565b5b60006122d187828801611e86565b94505060206122e287828801611e86565b93505060406122f387828801611cf5565b925050606085013567ffffffffffffffff81111561231457612313611c14565b5b6123208782880161227b565b91505092959194509250565b6000806040838503121561234357612342611c0f565b5b600061235185828601611e86565b925050602061236285828601611e86565b9150509250929050565b7f4e487b7100000000000000000000000000000000000000000000000000000000600052602260045260246000fd5b600060028204905060018216806123b357607f821691505b6020821081036123c6576123c561236c565b5b50919050565b7f6e6f204d4f415000000000000000000000000000000000000000000000000000600082015250565b6000612402600783611d6c565b915061240d826123cc565b602082019050919050565b60006020820190508181036000830152612431816123f5565b9050919050565b7f736f6c64206f7574000000000000000000000000000000000000000000000000600082015250565b600061246e600883611d6c565b915061247982612438565b602082019050919050565b6000602082019050818103600083015261249d81612461565b9050919050565b7f636c61696d656400000000000000000000000000000000000000000000000000600082015250565b60006124da600783611d6c565b91506124e5826124a4565b602082019050919050565b60006020820190508181036000830152612509816124cd565b9050919050565b7f4e487b7100000000000000000000000000000000000000000000000000000000600052601160045260246000fd5b600061254a82611cd4565b915061255583611cd4565b925082820190508082111561256d5761256c612510565b5b92915050565b7f617070726f76616c732064697361626c65640000000000000000000000000000600082015250565b60006125a9601283611d6c565b91506125b482612573565b602082019050919050565b600060208201905081810360008301526125d88161259c565b9050919050565b7f4552433732313a2063616c6c6572206973206e6f7420746f6b656e206f776e6560008201527f72206f7220617070726f76656400000000000000000000000000000000000000602082015250565b600061263b602d83611d6c565b9150612646826125df565b604082019050919050565b6000602082019050818103600083015261266a8161262e565b9050919050565b7f6d6178436c61696d733d30000000000000000000000000000000000000000000600082015250565b60006126a7600b83611d6c565b91506126b282612671565b602082019050919050565b600060208201905081810360008301526126d68161269a565b9050919050565b60008190508160005260206000209050919050565b60006020601f8301049050919050565b600082821b905092915050565b60006008830261273f7fffffffffffffffffffffffffffffffffffffffffffffffffffffffffffffffff82612702565b6127498683612702565b95508019841693508086168417925050509392505050565b6000819050919050565b600061278661278161277c84611cd4565b612761565b611cd4565b9050919050565b6000819050919050565b6127a08361276b565b6127b46127ac8261278d565b84845461270f565b825550505050565b600090565b6127c96127bc565b6127d4818484612797565b505050565b5b818110156127f8576127ed6000826127c1565b6001810190506127da565b5050565b601f82111561283d5761280e816126dd565b612817846126f2565b81016020851015612826578190505b61283a612832856126f2565b8301826127d9565b50505b505050565b600082821c905092915050565b600061286060001984600802612842565b1980831691505092915050565b6000612879838361284f565b9150826002028217905092915050565b61289282611d61565b67ffffffffffffffff8111156128ab576128aa61217e565b5b6128b5825461239b565b6128c08282856127fc565b600060209050601f8311600181146128f357600084156128e1578287015190505b6128eb858261286d565b865550612953565b601f198416612901866126dd565b60005b8281101561292957848901518255600182019150602085019450602081019050612904565b868310156129465784890151612942601f89168261284f565b8355505b6001600288020188555050505b505050505050565b60006129678385611d6c565b935061297483858461222a565b61297d83611da7565b840190509392505050565b600060408201905061299d6000830186611d37565b81810360208301526129b081848661295b565b9050949350505050565b7f4552433732313a20696e76616c696420746f6b656e2049440000000000000000600082015250565b60006129f0601883611d6c565b91506129fb826129ba565b602082019050919050565b60006020820190508181036000830152612a1f816129e3565b9050919050565b7f4552433732313a2061646472657373207a65726f206973206e6f74206120766160008201527f6c6964206f776e65720000000000000000000000000000000000000000000000602082015250565b6000612a82602983611d6c565b9150612a8d82612a26565b604082019050919050565b60006020820190508181036000830152612ab181612a75565b9050919050565b7f6e6f20746f6b656e000000000000000000000000000000000000000000000000600082015250565b6000612aee600883611d6c565b9150612af982612ab8565b602082019050919050565b60006020820190508181036000830152612b1d81612ae1565b9050919050565b7f697066733a2f2f00000000000000000000000000000000000000000000000000815250565b600081905092915050565b60008154612b628161239b565b612b6c8186612b4a565b94506001821660008114612b875760018114612b9c57612bcf565b60ff1983168652811515820286019350612bcf565b612ba5856126dd565b60005b83811015612bc757815481890152600182019150602081019050612ba8565b838801955050505b50505092915050565b6000612be382612b24565b600782019150612bf38284612b55565b915081905092915050565b7f4f776e61626c653a206e6577206f776e657220697320746865207a65726f206160008201527f6464726573730000000000000000000000000000000000000000000000000000602082015250565b6000612c5a602683611d6c565b9150612c6582612bfe565b604082019050919050565b60006020820190508181036000830152612c8981612c4d565b9050919050565b7f4552433732313a207472616e736665722066726f6d20696e636f72726563742060008201527f6f776e6572000000000000000000000000000000000000000000000000000000602082015250565b6000612cec602583611d6c565b9150612cf782612c90565b604082019050919050565b60006020820190508181036000830152612d1b81612cdf565b9050919050565b7f4552433732313a207472616e7366657220746f20746865207a65726f2061646460008201527f7265737300000000000000000000000000000000000000000000000000000000602082015250565b6000612d7e602483611d6c565b9150612d8982612d22565b604082019050919050565b60006020820190508181036000830152612dad81612d71565b9050919050565b7f4f776e61626c653a2063616c6c6572206973206e6f7420746865206f776e6572600082015250565b6000612dea602083611d6c565b9150612df582612db4565b602082019050919050565b60006020820190508181036000830152612e1981612ddd565b9050919050565b7f4552433732313a207472616e7366657220746f206e6f6e20455243373231526560008201527f63656976657220696d706c656d656e7465720000000000000000000000000000602082015250565b6000612e7c603283611d6c565b9150612e8782612e20565b604082019050919050565b60006020820190508181036000830152612eab81612e6f565b9050919050565b7f7472616e73666572732064697361626c65640000000000000000000000000000600082015250565b6000612ee8601283611d6c565b9150612ef382612eb2565b602082019050919050565b60006020820190508181036000830152612f1781612edb565b9050919050565b600081519050919050565b600082825260208201905092915050565b6000612f4582612f1e565b612f4f8185612f29565b9350612f5f818560208601611d7d565b612f6881611da7565b840191505092915050565b6000608082019050612f886000830187611e45565b612f956020830186611e45565b612fa26040830185611d37565b8181036060830152612fb48184612f3a565b905095945050505050565b600081519050612fce81611c45565b92915050565b600060208284031215612fea57612fe9611c0f565b5b6000612ff884828501612fbf565b91505092915050565b7f4552433732313a206d696e7420746f20746865207a65726f2061646472657373600082015250565b6000613037602083611d6c565b915061304282613001565b602082019050919050565b600060208201905081810360008301526130668161302a565b9050919050565b7f4552433732313a20746f6b656e20616c7265616479206d696e74656400000000600082015250565b60006130a3601c83611d6c565b91506130ae8261306d565b602082019050919050565b600060208201905081810360008301526130d281613096565b905091905056fea164736f6c634300081c000a",
  "linkReferences": {},
  "deployedLinkReferences": {}
}