{
  "_format": "hh-sol-artifact-1",
  "contractName": "MVB",
  "sourceName": "contracts/MVB.sol",
  "abi": [
    {
      "inputs": [],
      "stateMutability": "nonpayable",
      "type": "constructor"
    },
    {
      "anonymous": false,
      "inputs": [
        {
          "indexed": true,
          "internalType": "address",
          "name": "owner",
          "type": "address"
        },
        {
          "indexed": true,
          "internalType": "address",
          "name": "approved",
          "type": "address"
        },
        {
          "indexed": true,
          "internalType": "uint256",
          "name": "tokenId",
          "type": "uint256"
        }
      ],
      "name": "Approval",
      "type": "event"
    },
    {
      "anonymous": false,
      "inputs": [
        {
          "indexed": true,
          "internalType": "address",
          "name": "owner",
          "type": "address"
        },
        {
          "indexed": true,
          "internalType": "address",
          "name": "operator",
          "type": "address"
        },
        {
          "indexed": false,
          "internalType": "bool",
          "name": "approved",
          "type": "bool"
        }
      ],
      "name": "ApprovalForAll",
      "type": "event"
    },
    {
      "anonymous": false,
      "inputs": [
        {
          "indexed": true,
          "internalType": "uint256",
          "name": "tokenId",
          "type": "uint256"
        },
        {
          "indexed": true,
          "internalType": "address",
          "name": "bidder",
          "type": "address"
        },
        {
          "indexed": false,
          "internalType": "uint256",
          "name": "bidAmount",
          "type": "uint256"
        }
      ],
      "name": "AuctionBid",
      "type": "event"
    },
    {
      "anonymous": false,
      "inputs": [
        {
          "indexed": true,
          "internalType": "uint256",
          "name": "tokenId",
          "type": "uint256"
        }
      ],
      "name": "AuctionCancelled",
      "type": "event"
    },
    {
      "anonymous": false,
      "inputs": [
        {
          "indexed": true,
          "internalType": "uint256",
          "name": "tokenId",
          "type": "uint256"
        },
        {
          "indexed": true,
          "internalType": "address",
          "name": "seller",
          "type": "address"
        },
        {
          "indexed": false,
          "internalType": "uint256",
          "name": "startPrice",
          "type": "uint256"
        },
        {
          "indexed": false,
          "internalType": "uint256",
          "name": "endTime",
          "type": "uint256"
        }
      ],
      "name": "AuctionCreated",
      "type": "event"
    },
    {
      "anonymous": false,
      "inputs": [
        {
          "indexed": true,
          "internalType": "uint256",
          "name": "tokenId",
          "type": "uint256"
        },
        {
          "indexed": true,
          "internalType": "address",
          "name": "winner",
          "type": "address"
        },
        {
          "indexed": false,
          "internalType": "uint256",
          "name": "finalPrice",
          "type": "uint256"
        }
      ],
      "name": "AuctionEnded",
      "type": "event"
    },
    {
      "anonymous": false,
      "inputs": [
        {
          "indexed": true,
          "internalType": "uint256",
          "name": "tokenId",
          "type": "uint256"
        },
        {
          "indexed": true,
          "internalType": "address",
          "name": "owner",
          "type": "address"
        },
        {
          "indexed": true,
          "internalType": "uint256",
          "name": "collectionId",
          "type": "uint256"
        }
      ],
      "name": "NFTMinted",
      "type": "event"
    },
    {
      "anonymous": false,
      "inputs": [
        {
          "indexed": true,
          "internalType": "bytes32",
          "name": "role",
          "type": "bytes32"
        },
        {
          "indexed": true,
          "internalType": "bytes32",
          "name": "previousAdminRole",
          "type": "bytes32"
        },
        {
          "indexed": true,
          "internalType": "bytes32",
          "name": "newAdminRole",
          "type": "bytes32"
        }
      ],
      "name": "RoleAdminChanged",
      "type": "event"
    },
    {
      "anonymous": false,
      "inputs": [
        {
          "indexed": true,
          "internalType": "bytes32",
          "name": "role",
          "type": "bytes32"
        },
        {
          "indexed": true,
          "internalType": "address",
          "name": "account",
          "type": "address"
        },
        {
          "indexed": true,
          "internalType": "address",
          "name": "sender",
          "type": "address"
        }
      ],
      "name": "RoleGranted",
      "type": "event"
    },
    {
      "anonymous": false,
      "inputs": [
        {
          "indexed": true,
          "internalType": "bytes32",
          "name": "role",
          "type": "bytes32"
        },
        {
          "indexed": true,
          "internalType": "address",
          "name": "account",
          "type": "address"
        },
        {
          "indexed": true,
          "internalType": "address",
          "name": "sender",
          "type": "address"
        }
      ],
      "name": "RoleRevoked",
      "type": "event"
    },
    {
      "anonymous": false,
      "inputs": [
        {
          "indexed": true,
          "internalType": "address",
          "name": "from",
          "type": "address"
        },
        {
          "indexed": true,
          "internalType": "address",
          "name": "to",
          "type": "address"
        },
        {
          "indexed": true,
          "internalType": "uint256",
          "name": "tokenId",
          "type": "uint256"
        }
      ],
      "name": "Transfer",
      "type": "event"
    },
    {
      "inputs": [],
      "name": "ADMIN_ROLE",
      "outputs": [
        {
          "internalType": "bytes32",
          "name": "",
          "type": "bytes32"
        }
      ],
      "stateMutability": "view",
      "type": "function"
    },
    {
      "inputs": [],
      "name": "DEFAULT_ADMIN_ROLE",
      "outputs": [
        {
          "internalType": "bytes32",
          "name": "",
          "type": "bytes32"
        }
      ],
      "stateMutability": "view",
      "type": "function"
    },
    {
      "inputs": [],
      "name": "IMAGES_PER_COLLECTION",
      "outputs": [
        {
          "internalType": "uint8",
          "name": "",
          "type": "uint8"
        }
      ],
      "stateMutability": "view",
      "type": "function"
    },
    {
      "inputs": [],
      "name": "MAX_SUPPLY_PER_COLLECTION",
      "outputs": [
        {
          "internalType": "uint256",
          "name": "",
          "type": "uint256"
        }
      ],
      "stateMutability": "view",
      "type": "function"
    },
    {
      "inputs": [],
      "name": "MINT_LIMIT_PER_USER",
      "outputs": [
        {
          "internalType": "uint256",
          "name": "",
          "type": "uint256"
        }
      ],
      "stateMutability": "view",
      "type": "function"
    },
    {
      "inputs": [],
      "name": "MINT_PRICE",
      "outputs": [
        {
          "internalType": "uint256",
          "name": "",
          "type": "uint256"
        }
      ],
      "stateMutability": "view",
      "type": "function"
    },
    {
      "inputs": [],
      "name": "MIN_AUCTION_DURATION_MINUTES",
      "outputs": [
        {
          "internalType": "uint256",
          "name": "",
          "type": "uint256"
        }
      ],
      "stateMutability": "view",
      "type": "function"
    },
    {
      "inputs": [
        {
          "internalType": "address",
          "name": "to",
          "type": "address"
        },
        {
          "internalType": "uint256",
          "name": "tokenId",
          "type": "uint256"
        }
      ],
      "name": "approve",
      "outputs": [],
      "stateMutability": "nonpayable",
      "type": "function"
    },
    {
      "inputs": [
        {
          "internalType": "uint256",
          "name": "",
          "type": "uint256"
        }
      ],
      "name": "auctions",
      "outputs": [
        {
          "internalType": "uint256",
          "name": "tokenId",
          "type": "uint256"
        },
        {
          "internalType": "address",
          "name": "seller",
          "type": "address"
        },
        {
          "internalType": "uint256",
          "name": "startPrice",
          "type": "uint256"
        },
        {
          "internalType": "uint256",
          "name": "endTime",
          "type": "uint256"
        },
        {
          "internalType": "bool",
          "name": "isActive",
          "type": "bool"
        },
        {
          "internalType": "address",
          "name": "highestBidder",
          "type": "address"
        },
        {
          "internalType": "uint256",
          "name": "highestBid",
          "type": "uint256"
        }
      ],
      "stateMutability": "view",
      "type": "function"
    },
    {
      "inputs": [
        {
          "internalType": "address",
          "name": "owner",
          "type": "address"
        }
      ],
      "name": "balanceOf",
      "outputs": [
        {
          "internalType": "uint256",
          "name": "",
          "type": "uint256"
        }
      ],
      "stateMutability": "view",
      "type": "function"
    },
    {
      "inputs": [
        {
          "internalType": "uint256",
          "name": "tokenId",
          "type": "uint256"
        }
      ],
      "name": "bid",
      "outputs": [],
      "stateMutability": "payable",
      "type": "function"
    },
    {
      "inputs": [
        {
          "internalType": "uint256",
          "name": "tokenId",
          "type": "uint256"
        }
      ],
      "name": "cancelAuction",
      "outputs": [],
      "stateMutability": "nonpayable",
      "type": "function"
    },
    {
      "inputs": [
        {
          "internalType": "uint256",
          "name": "",
          "type": "uint256"
        }
      ],
      "name": "collections",
      "outputs": [
        {
          "internalType": "uint256",
          "name": "id",
          "type": "uint256"
        },
        {
          "internalType": "address",
          "name": "authorAddress",
          "type": "address"
        },
        {
          "internalType": "string",
          "name": "authorName",
          "type": "string"
        },
        {
          "internalType": "string",
          "name": "collectionName",
          "type": "string"
        },
        {
          "internalType": "uint256",
          "name": "currentSupply",
          "type": "uint256"
        },
        {
          "internalType": "bool",
          "name": "isMintingPaused",
          "type": "bool"
        },
        {
          "internalType": "uint8",
          "name": "imageCursor",
          "type": "uint8"
        },
        {
          "internalType": "string",
          "name": "metadataBaseURI",
          "type": "string"
        }
      ],
      "stateMutability": "view",
      "type": "function"
    },
    {
      "inputs": [
        {
          "internalType": "uint256",
          "name": "tokenId",
          "type": "uint256"
        },
        {
          "internalType": "uint256",
          "name": "startPrice",
          "type": "uint256"
        },
        {
          "internalType": "uint256",
          "name": "durationInMinutes",
          "type": "uint256"
        }
      ],
      "name": "createAuction",
      "outputs": [],
      "stateMutability": "nonpayable",
      "type": "function"
    },
    {
      "inputs": [
        {
          "internalType": "address",
          "name": "authorAddr",
          "type": "address"
        },
        {
          "internalType": "string",
          "name": "authorName",
          "type": "string"
        },
        {
          "internalType": "string",
          "name": "collectionName",
          "type": "string"
        },
        {
          "internalType": "string",
          "name": "metadataBaseURI",
          "type": "string"
        }
      ],
      "name": "createCollection",
      "outputs": [],
      "stateMutability": "nonpayable",
      "type": "function"
    },
    {
      "inputs": [
        {
          "internalType": "uint256",
          "name": "tokenId",
          "type": "uint256"
        }
      ],
      "name": "finishAuction",
      "outputs": [],
      "stateMutability": "nonpayable",
      "type": "function"
    },
    {
      "inputs": [
        {
          "internalType": "uint256",
          "name": "tokenId",
          "type": "uint256"
        }
      ],
      "name": "getApproved",
      "outputs": [
        {
          "internalType": "address",
          "name": "",
          "type": "address"
        }
      ],
      "stateMutability": "view",
      "type": "function"
    },
    {
      "inputs": [
        {
          "internalType": "bytes32",
          "name": "role",
          "type": "bytes32"
        }
      ],
      "name": "getRoleAdmin",
      "outputs": [
        {
          "internalType": "bytes32",
          "name": "",
          "type": "bytes32"
        }
      ],
      "stateMutability": "view",
      "type": "function"
    },
    {
      "inputs": [
        {
          "internalType": "bytes32",
          "name": "role",
          "type": "bytes32"
        },
        {
          "internalType": "address",
          "name": "account",
          "type": "address"
        }
      ],
      "name": "grantRole",
      "outputs": [],
      "stateMutability": "nonpayable",
      "type": "function"
    },
    {
      "inputs": [
        {
          "internalType": "bytes32",
          "name": "role",
          "type": "bytes32"
        },
        {
          "internalType": "address",
          "name": "account",
          "type": "address"
        }
      ],
      "name": "hasRole",
      "outputs": [
        {
          "internalType": "bool",
          "name": "",
          "type": "bool"
        }
      ],
      "stateMutability": "view",
      "type": "function"
    },
    {
      "inputs": [
        {
          "internalType": "address",
          "name": "owner",
          "type": "address"
        },
        {
          "internalType": "address",
          "name": "operator",
          "type": "address"
        }
      ],
      "name": "isApprovedForAll",
      "outputs": [
        {
          "internalType": "bool",
          "name": "",
          "type": "bool"
        }
      ],
      "stateMutability": "view",
      "type": "function"
    },
    {
      "inputs": [
        {
          "internalType": "uint256",
          "name": "collectionId",
          "type": "uint256"
        }
      ],
      "name": "mint",
      "outputs": [],
      "stateMutability": "payable",
      "type": "function"
    },
    {
      "inputs": [],
      "name": "name",
      "outputs": [
        {
          "internalType": "string",
          "name": "",
          "type": "string"
        }
      ],
      "stateMutability": "view",
      "type": "function"
    },
    {
      "inputs": [
        {
          "internalType": "uint256",
          "name": "tokenId",
          "type": "uint256"
        }
      ],
      "name": "ownerOf",
      "outputs": [
        {
          "internalType": "address",
          "name": "",
          "type": "address"
        }
      ],
      "stateMutability": "view",
      "type": "function"
    },
    {
      "inputs": [
        {
          "internalType": "address",
          "name": "",
          "type": "address"
        }
      ],
      "name": "pendingReturns",
      "outputs": [
        {
          "internalType": "uint256",
          "name": "",
          "type": "uint256"
        }
      ],
      "stateMutability": "view",
      "type": "function"
    },
    {
      "inputs": [
        {
          "internalType": "bytes32",
          "name": "role",
          "type": "bytes32"
        },
        {
          "internalType": "address",
          "name": "account",
          "type": "address"
        }
      ],
      "name": "renounceRole",
      "outputs": [],
      "stateMutability": "nonpayable",
      "type": "function"
    },
    {
      "inputs": [
        {
          "internalType": "bytes32",
          "name": "role",
          "type": "bytes32"
        },
        {
          "internalType": "address",
          "name": "account",
          "type": "address"
        }
      ],
      "name": "revokeRole",
      "outputs": [],
      "stateMutability": "nonpayable",
      "type": "function"
    },
    {
      "inputs": [
        {
          "internalType": "address",
          "name": "from",
          "type": "address"
        },
        {
          "internalType": "address",
          "name": "to",
          "type": "address"
        },
        {
          "internalType": "uint256",
          "name": "tokenId",
          "type": "uint256"
        }
      ],
      "name": "safeTransferFrom",
      "outputs": [],
      "stateMutability": "nonpayable",
      "type": "function"
    },
    {
      "inputs": [
        {
          "internalType": "address",
          "name": "from",
          "type": "address"
        },
        {
          "internalType": "address",
          "name": "to",
          "type": "address"
        },
        {
          "internalType": "uint256",
          "name": "tokenId",
          "type": "uint256"
        },
        {
          "internalType": "bytes",
          "name": "data",
          "type": "bytes"
        }
      ],
      "name": "safeTransferFrom",
      "outputs": [],
      "stateMutability": "nonpayable",
      "type": "function"
    },
    {
      "inputs": [
        {
          "internalType": "address",
          "name": "operator",
          "type": "address"
        },
        {
          "internalType": "bool",
          "name": "approved",
          "type": "bool"
        }
      ],
      "name": "setApprovalForAll",
      "outputs": [],
      "stateMutability": "nonpayable",
      "type": "function"
    },
    {
      "inputs": [
        {
          "internalType": "uint256",
          "name": "collectionId",
          "type": "uint256"
        },
        {
          "internalType": "string",
          "name": "newBaseURI",
          "type": "string"
        }
      ],
      "name": "setMetadataBaseURI",
      "outputs": [],
      "stateMutability": "nonpayable",
      "type": "function"
    },
    {
      "inputs": [
        {
          "internalType": "uint256",
          "name": "collectionId",
          "type": "uint256"
        },
        {
          "internalType": "bool",
          "name": "paused",
          "type": "bool"
        }
      ],
      "name": "setMintingPaused",
      "outputs": [],
      "stateMutability": "nonpayable",
      "type": "function"
    },
    {
      "inputs": [
        {
          "internalType": "bytes4",
          "name": "interfaceId",
          "type": "bytes4"
        }
      ],
      "name": "supportsInterface",
      "outputs": [
        {
          "internalType": "bool",
          "name": "",
          "type": "bool"
        }
      ],
      "stateMutability": "view",
      "type": "function"
    },
    {
      "inputs": [],
      "name": "symbol",
      "outputs": [
        {
          "internalType": "string",
          "name": "",
          "type": "string"
        }
      ],
      "stateMutability": "view",
      "type": "function"
    },
    {
      "inputs": [
        {
          "internalType": "uint256",
          "name": "index",
          "type": "uint256"
        }
      ],
      "name": "tokenByIndex",
      "outputs": [
        {
          "internalType": "uint256",
          "name": "",
          "type": "uint256"
        }
      ],
      "stateMutability": "view",
      "type": "function"
    },
    {
      "inputs": [
        {
          "internalType": "address",
          "name": "owner",
          "type": "address"
        },
        {
          "internalType": "uint256",
          "name": "index",
          "type": "uint256"
        }
      ],
      "name": "tokenOfOwnerByIndex",
      "outputs": [
        {
          "internalType": "uint256",
          "name": "",
          "type": "uint256"
        }
      ],
      "stateMutability": "view",
      "type": "function"
    },
    {
      "inputs": [
        {
          "internalType": "uint256",
          "name": "tokenId",
          "type": "uint256"
        }
      ],
      "name": "tokenURI",
      "outputs": [
        {
          "internalType": "string",
          "name": "",
          "type": "string"
        }
      ],
      "stateMutability": "view",
      "type": "function"
    },
    {
      "inputs": [],
      "name": "totalSupply",
      "outputs": [
        {
          "internalType": "uint256",
          "name": "",
          "type": "uint256"
        }
      ],
      "stateMutability": "view",
      "type": "function"
    },
    {
      "inputs": [
        {
          "internalType": "address",
          "name": "from",
          "type": "address"
        },
        {
          "internalType": "address",
          "name": "to",
          "type": "address"
        },
        {
          "internalType": "uint256",
          "name": "tokenId",
          "type": "uint256"
        }
      ],
      "name": "transferFrom",
      "outputs": [],
      "stateMutability": "nonpayable",
      "type": "function"
    },
    {
      "inputs": [],
      "name": "withdrawAll",
      "outputs": [],
      "stateMutability": "nonpayable",
      "type": "function"
    },
    {
      "inputs": [],
      "name": "withdrawBid",
      "outputs": [],
      "stateMutability": "nonpayable",
      "type": "function"
    },
    {
      "stateMutability": "payable",
      "type": "receive"
    }
  ],
  "bytecode": "0x608060405234801561001057600080fd5b5060405180604001604052806012815260200171135d5b1d1a50dbdb1b1958dd1a5bdb93919560721b815250604051806040016040528060058152602001641350d3919560da1b81525081600090816100699190610207565b5060016100768282610207565b50506001600b55506100896000336100b8565b6100b37fa49807205ce4d355092ef5a8a18f56e8913cf4a201fbe287825b095693c21775336100b8565b6102c5565b6100c282826100c6565b5050565b6000828152600a602090815260408083206001600160a01b038516845290915290205460ff166100c2576000828152600a602090815260408083206001600160a01b03851684529091529020805460ff191660011790556101243390565b6001600160a01b0316816001600160a01b0316837f2f8788117e7eff1d82e926ec794901d17c78024a50270940304540a733656f0d60405160405180910390a45050565b634e487b7160e01b600052604160045260246000fd5b600181811c9082168061019257607f821691505b6020821081036101b257634e487b7160e01b600052602260045260246000fd5b50919050565b601f82111561020257806000526020600020601f840160051c810160208510156101df5750805b601f840160051c820191505b818110156101ff57600081556001016101eb565b50505b505050565b81516001600160401b0381111561022057610220610168565b6102348161022e845461017e565b846101b8565b6020601f82116001811461026857600083156102505750848201515b600019600385901b1c1916600184901b1784556101ff565b600084815260208120601f198516915b828110156102985787850151825560209485019460019092019101610278565b50848210156102b65786840151600019600387901b60f8161c191681555b50505050600190811b01905550565b613934806102d46000396000f3fe60806040526004361061024a5760003560e01c8063571a26a011610139578063a217fddf116100b6578063c87b56dd1161007a578063c87b56dd1461072f578063cda4beef1461074f578063cf266ed01461076f578063d547741f1461078f578063e985e9c5146107af578063fdbda0ec146107f857600080fd5b8063a217fddf14610697578063a22cb465146106ac578063b88d4fde146106cc578063c002d23d146106ec578063c484a81a1461070857600080fd5b806391d14854116100fd57806391d148541461061a57806395d89b411461063a57806396b5a7551461064f578063980468451461066f578063a0712d681461068457600080fd5b8063571a26a0146104f95780636352211e146105a357806370a08231146105c357806375b238fc146105e3578063853828b61461060557600080fd5b806326b387bb116101c757806337271cc71161018b57806337271cc7146104715780633df174531461048657806342842e0e146104a6578063454a2ab3146104c65780634f6ccce7146104d957600080fd5b806326b387bb146103cf5780632f2ff15d146103fc5780632f745c591461041c57806332669e6b1461043c57806336568abe1461045157600080fd5b8063095ea7b31161020e578063095ea7b31461032a57806314f008ee1461034a57806318160ddd1461036a57806323b872dd1461037f578063248a9ca31461039f57600080fd5b806301ffc9a71461025657806304ee30681461028b5780630578c990146102ae57806306fdde03146102d0578063081812fc146102f257600080fd5b3661025157005b600080fd5b34801561026257600080fd5b50610276610271366004612e9d565b61082c565b60405190151581526020015b60405180910390f35b34801561029757600080fd5b506102a0600581565b604051908152602001610282565b3480156102ba57600080fd5b506102ce6102c9366004612ecf565b61083d565b005b3480156102dc57600080fd5b506102e56108d2565b6040516102829190612f4b565b3480156102fe57600080fd5b5061031261030d366004612f5e565b610964565b6040516001600160a01b039091168152602001610282565b34801561033657600080fd5b506102ce610345366004612f8e565b61098b565b34801561035657600080fd5b506102ce610365366004612fb8565b610aa0565b34801561037657600080fd5b506008546102a0565b34801561038b57600080fd5b506102ce61039a366004613036565b610b2f565b3480156103ab57600080fd5b506102a06103ba366004612f5e565b6000908152600a602052604090206001015490565b3480156103db57600080fd5b506102a06103ea366004613073565b60136020526000908152604090205481565b34801561040857600080fd5b506102ce61041736600461308e565b610b60565b34801561042857600080fd5b506102a0610437366004612f8e565b610b85565b34801561044857600080fd5b506102a0603281565b34801561045d57600080fd5b506102ce61046c36600461308e565b610c1b565b34801561047d57600080fd5b506102ce610c99565b34801561049257600080fd5b506102ce6104a1366004613161565b610d9b565b3480156104b257600080fd5b506102ce6104c1366004613036565b610e47565b6102ce6104d4366004612f5e565b610e62565b3480156104e557600080fd5b506102a06104f4366004612f5e565b611013565b34801561050557600080fd5b50610562610514366004612f5e565b60126020526000908152604090208054600182015460028301546003840154600485015460059095015493946001600160a01b03938416949293919260ff8216926101009092049091169087565b604080519788526001600160a01b03968716602089015287019490945260608601929092521515608085015290911660a083015260c082015260e001610282565b3480156105af57600080fd5b506103126105be366004612f5e565b6110a6565b3480156105cf57600080fd5b506102a06105de366004613073565b611106565b3480156105ef57600080fd5b506102a060008051602061390883398151915281565b34801561061157600080fd5b506102ce61118c565b34801561062657600080fd5b5061027661063536600461308e565b611269565b34801561064657600080fd5b506102e5611294565b34801561065b57600080fd5b506102ce61066a366004612f5e565b6112a3565b34801561067b57600080fd5b506102a0606481565b6102ce610692366004612f5e565b611403565b3480156106a357600080fd5b506102a0600081565b3480156106b857600080fd5b506102ce6106c7366004613206565b6117d7565b3480156106d857600080fd5b506102ce6106e7366004613230565b6117e2565b3480156106f857600080fd5b506102a067016345785d8a000081565b34801561071457600080fd5b5061071d600a81565b60405160ff9091168152602001610282565b34801561073b57600080fd5b506102e561074a366004612f5e565b61181a565b34801561075b57600080fd5b506102ce61076a3660046132a0565b61191d565b34801561077b57600080fd5b506102ce61078a366004612f5e565b611af5565b34801561079b57600080fd5b506102ce6107aa36600461308e565b611da2565b3480156107bb57600080fd5b506102766107ca3660046132cc565b6001600160a01b03918216600090815260056020908152604080832093909416825291909152205460ff1690565b34801561080457600080fd5b50610818610813366004612f5e565b611dc7565b6040516102829897969594939291906132f6565b600061083782611fb6565b92915050565b60008051602061390883398151915261085581611fdb565b6000838152600e602052604081205490036108ae5760405162461bcd60e51b815260206004820152601460248201527310dbdb1b1958dd1a5bdb881b9bdd08199bdd5b9960621b60448201526064015b60405180910390fd5b506000918252600e6020526040909120600501805460ff1916911515919091179055565b6060600080546108e19061336d565b80601f016020809104026020016040519081016040528092919081815260200182805461090d9061336d565b801561095a5780601f1061092f5761010080835404028352916020019161095a565b820191906000526020600020905b81548152906001019060200180831161093d57829003601f168201915b5050505050905090565b600061096f82611fe5565b506000908152600460205260409020546001600160a01b031690565b6000610996826110a6565b9050806001600160a01b0316836001600160a01b031603610a035760405162461bcd60e51b815260206004820152602160248201527f4552433732313a20617070726f76616c20746f2063757272656e74206f776e656044820152603960f91b60648201526084016108a5565b336001600160a01b0382161480610a1f5750610a1f81336107ca565b610a915760405162461bcd60e51b815260206004820152603d60248201527f4552433732313a20617070726f76652063616c6c6572206973206e6f7420746f60448201527f6b656e206f776e6572206f7220617070726f76656420666f7220616c6c00000060648201526084016108a5565b610a9b8383612044565b505050565b600080516020613908833981519152610ab881611fdb565b6000848152600e60205260408120549003610b0c5760405162461bcd60e51b815260206004820152601460248201527310dbdb1b1958dd1a5bdb881b9bdd08199bdd5b9960621b60448201526064016108a5565b6000848152600e60205260409020600701610b288385836133ee565b5050505050565b610b3933826120b2565b610b555760405162461bcd60e51b81526004016108a5906134ae565b610a9b838383612131565b6000828152600a6020526040902060010154610b7b81611fdb565b610a9b83836122a2565b6000610b9083611106565b8210610bf25760405162461bcd60e51b815260206004820152602b60248201527f455243373231456e756d657261626c653a206f776e657220696e646578206f7560448201526a74206f6620626f756e647360a81b60648201526084016108a5565b506001600160a01b03919091166000908152600660209081526040808320938352929052205490565b6001600160a01b0381163314610c8b5760405162461bcd60e51b815260206004820152602f60248201527f416363657373436f6e74726f6c3a2063616e206f6e6c792072656e6f756e636560448201526e103937b632b9903337b91039b2b63360891b60648201526084016108a5565b610c958282612328565b5050565b610ca161238f565b3360009081526013602052604090205480610cf45760405162461bcd60e51b81526020600482015260136024820152724e6f7468696e6720746f20776974686472617760681b60448201526064016108a5565b336000818152601360205260408082208290555190919083908381818185875af1925050503d8060008114610d45576040519150601f19603f3d011682016040523d82523d6000602084013e610d4a565b606091505b5050905080610d8d5760405162461bcd60e51b815260206004820152600f60248201526e15da5d1a191c985dc819985a5b1959608a1b60448201526064016108a5565b5050610d996001600b55565b565b600080516020613908833981519152610db381611fdb565b610dc1600d80546001019055565b6000610dcc600d5490565b6000818152600e602052604090208181556001810180546001600160a01b0319166001600160a01b038a1617905590915060028101610e0b87826134fb565b5060038101610e1a86826134fb565b506000600482015560058101805461ffff1916905560078101610e3d85826134fb565b5050505050505050565b610a9b838383604051806020016040528060008152506117e2565b610e6a61238f565b6000818152601260205260409020600481015460ff16610ec15760405162461bcd60e51b815260206004820152601260248201527141756374696f6e206e6f742061637469766560701b60448201526064016108a5565b80600301544210610f045760405162461bcd60e51b815260206004820152600d60248201526c105d58dd1a5bdb88195b991959609a1b60448201526064016108a5565b60058101543481108015610f1b5750816002015434115b610f555760405162461bcd60e51b815260206004820152600b60248201526a42696420746f6f206c6f7760a81b60448201526064016108a5565b600482015461010090046001600160a01b031615610fa9576005820154600483015461010090046001600160a01b031660009081526013602052604081208054909190610fa39084906135d0565b90915550505b600482018054610100600160a81b03191633610100810291909117909155346005840181905560405190815284907fb8d756f2d1da4663767eb4d559780ace84f2f65a421a60ddcb47e8b2e5d2fd269060200160405180910390a350506110106001600b55565b50565b600061101e60085490565b82106110815760405162461bcd60e51b815260206004820152602c60248201527f455243373231456e756d657261626c653a20676c6f62616c20696e646578206f60448201526b7574206f6620626f756e647360a01b60648201526084016108a5565b60088281548110611094576110946135e3565b90600052602060002001549050919050565b6000818152600260205260408120546001600160a01b0316806108375760405162461bcd60e51b8152602060048201526018602482015277115490cdcc8c4e881a5b9d985b1a59081d1bdad95b88125160421b60448201526064016108a5565b60006001600160a01b0382166111705760405162461bcd60e51b815260206004820152602960248201527f4552433732313a2061646472657373207a65726f206973206e6f7420612076616044820152683634b21037bbb732b960b91b60648201526084016108a5565b506001600160a01b031660009081526003602052604090205490565b6000805160206139088339815191526111a481611fdb565b47806111df5760405162461bcd60e51b815260206004820152600a6024820152694e6f2062616c616e636560b01b60448201526064016108a5565b604051600090339083908381818185875af1925050503d8060008114611221576040519150601f19603f3d011682016040523d82523d6000602084013e611226565b606091505b5050905080610a9b5760405162461bcd60e51b815260206004820152600f60248201526e15da5d1a191c985dc819985a5b1959608a1b60448201526064016108a5565b6000918252600a602090815260408084206001600160a01b0393909316845291905290205460ff1690565b6060600180546108e19061336d565b6112ab61238f565b6000818152601260205260409020600481015460ff166112fa5760405162461bcd60e51b815260206004820152600a6024820152694e6f742061637469766560b01b60448201526064016108a5565b60018101546001600160a01b031633146113435760405162461bcd60e51b815260206004820152600a6024820152692737ba1039b2b63632b960b11b60448201526064016108a5565b600481015461010090046001600160a01b0316156113a35760405162461bcd60e51b815260206004820152601760248201527f43616e6e6f742063616e63656c2061667465722062696400000000000000000060448201526064016108a5565b60048101805460ff19169055600181015481546113cd9130916001600160a01b0390911690612131565b60405182907f2809c7e17bf978fbc7194c0a694b638c4215e9140cacc6c38ca36010b45697df90600090a2506110106001600b55565b61140b61238f565b6000818152600e60205260408120805490910361146a5760405162461bcd60e51b815260206004820152601960248201527f436f6c6c656374696f6e20646f6573206e6f742065786973740000000000000060448201526064016108a5565b600581015460ff16156114ad5760405162461bcd60e51b815260206004820152600b60248201526a135a5b9d081c185d5cd95960aa1b60448201526064016108a5565b67016345785d8a000034146114fb5760405162461bcd60e51b8152602060048201526014602482015273125b98dbdc9c9958dd0811551208185b5bdd5b9d60621b60448201526064016108a5565b60648160040154106115455760405162461bcd60e51b815260206004820152601360248201527210dbdb1b1958dd1a5bdb881cdbdb19081bdd5d606a1b60448201526064016108a5565b33600090815260106020908152604080832085845290915290205460321161159f5760405162461bcd60e51b815260206004820152600d60248201526c131a5b5a5d081c995858da1959609a1b60448201526064016108a5565b6005810154610100900460ff16600080805b600a60ff82161015611621576000600a6115cb83876135f9565b6115d59190613628565b9050600a866006018260ff16600a81106115f1576115f16135e3565b602081049091015460ff601f9092166101000a900416101561161857925060019150611621565b506001016115b1565b508061167b5760405162461bcd60e51b8152602060048201526024808201527f416c6c20696d61676573206d696e7465642031302074696d65732c20736f6c64604482015263081bdd5d60e21b60648201526084016108a5565b611689600c80546001019055565b6000611694600c5490565b6000818152601160205260409020805460ff191660ff86169081179091559091506001906006870190600a81106116cd576116cd6135e3565b602091828204019190068282829054906101000a900460ff166116f091906135f9565b92506101000a81548160ff021916908360ff16021790555061171233826123e8565b6004850180549060006117248361364a565b9091555050336000908152601060209081526040808320898452909152812080549161174f8361364a565b90915550506000818152600f60205260409020869055600a6117728460016135f9565b61177c9190613628565b60058601805460ff929092166101000261ff00199092169190911790556040518690339083907f055e34067993de700e7f718f190fdccc92a27695bb9068504a1a44258577f8eb90600090a450505050506110106001600b55565b610c95338383612402565b6117ec33836120b2565b6118085760405162461bcd60e51b81526004016108a5906134ae565b611814848484846124d0565b50505050565b6000818152600260205260409020546060906001600160a01b03166118755760405162461bcd60e51b81526020600482015260116024820152702737b732bc34b9ba32b73a103a37b5b2b760791b60448201526064016108a5565b6000828152600f6020908152604080832054808452600e8352818420868552601190935292205460ff16600a81106118e35760405162461bcd60e51b8152602060048201526011602482015270092dcecc2d8d2c840d2dac2ceca40d2c8f607b1b60448201526064016108a5565b816007016118f38260ff16612503565b60405160200161190492919061367f565b6040516020818303038152906040529350505050919050565b61192561238f565b3361192f846110a6565b6001600160a01b0316146119715760405162461bcd60e51b81526020600482015260096024820152682737ba1037bbb732b960b91b60448201526064016108a5565b60058110156119b55760405162461bcd60e51b815260206004820152601060248201526f223ab930ba34b7b7101e101a9036b4b760811b60448201526064016108a5565b6119c0333085612131565b6040805160e081018252848152336020820152908101839052606081016119e883603c613736565b6119f290426135d0565b8152600160208083018290526000604080850182905260609485018290528882526012835290819020855181559185015192820180546001600160a01b039485166001600160a01b03199091161790558401516002820155918301516003830155608083015160048301805460a086015190931661010002610100600160a81b0319921515929092166001600160a81b03199093169290921717905560c09091015160059091015533837fc9050d42180a61cb0d9ebb8ad118b62fe6eab12cf12ff752c4a0cc7da9ddf62784611ac985603c613736565b611ad390426135d0565b6040805192835260208301919091520160405180910390a3610a9b6001600b55565b611afd61238f565b6000818152601260205260409020600481015460ff16611b4c5760405162461bcd60e51b815260206004820152600a6024820152694e6f742061637469766560b01b60448201526064016108a5565b8060030154421015611b905760405162461bcd60e51b815260206004820152600d60248201526c139bdd08195b991959081e595d609a1b60448201526064016108a5565b60018101546001600160a01b0316331480611bbe5750611bbe60008051602061390883398151915233611269565b611c015760405162461bcd60e51b815260206004820152601460248201527327b7363c9039b2b63632b91037b91030b236b4b760611b60448201526064016108a5565b60048101805460ff19169081905561010090046001600160a01b031615611d1a57600060648260050154611c35919061374d565b90506000818360050154611c499190613761565b60018401546040519192506000916001600160a01b039091169083908381818185875af1925050503d8060008114611c9d576040519150601f19603f3d011682016040523d82523d6000602084013e611ca2565b606091505b5050905080611cec5760405162461bcd60e51b815260206004820152601660248201527514d95b1b195c881d1c985b9cd9995c8819985a5b195960521b60448201526064016108a5565b611d12308560040160019054906101000a90046001600160a01b03168660000154612131565b505050611d38565b60018101548154611d389130916001600160a01b0390911690612131565b8060040160019054906101000a90046001600160a01b03166001600160a01b0316827fd2aa34a4fdbbc6dff6a3e56f46e0f3ae2a31d7785ff3487aa5c95c642acea5018360050154604051611d8f91815260200190565b60405180910390a3506110106001600b55565b6000828152600a6020526040902060010154611dbd81611fdb565b610a9b8383612328565b600e6020526000908152604090208054600182015460028301805492936001600160a01b0390921692611df99061336d565b80601f0160208091040260200160405190810160405280929190818152602001828054611e259061336d565b8015611e725780601f10611e4757610100808354040283529160200191611e72565b820191906000526020600020905b815481529060010190602001808311611e5557829003601f168201915b505050505090806003018054611e879061336d565b80601f0160208091040260200160405190810160405280929190818152602001828054611eb39061336d565b8015611f005780601f10611ed557610100808354040283529160200191611f00565b820191906000526020600020905b815481529060010190602001808311611ee357829003601f168201915b505050600484015460058501546007860180549596929560ff8084169650610100909304909216935090611f339061336d565b80601f0160208091040260200160405190810160405280929190818152602001828054611f5f9061336d565b8015611fac5780601f10611f8157610100808354040283529160200191611fac565b820191906000526020600020905b815481529060010190602001808311611f8f57829003601f168201915b5050505050905088565b60006001600160e01b03198216637965db0b60e01b1480610837575061083782612596565b61101081336125bb565b6000818152600260205260409020546001600160a01b03166110105760405162461bcd60e51b8152602060048201526018602482015277115490cdcc8c4e881a5b9d985b1a59081d1bdad95b88125160421b60448201526064016108a5565b600081815260046020526040902080546001600160a01b0319166001600160a01b0384169081179091558190612079826110a6565b6001600160a01b03167f8c5be1e5ebec7d5bd14f71427d1e84f3dd0314c0f7b2291e5b200ac8c7c3b92560405160405180910390a45050565b6000806120be836110a6565b9050806001600160a01b0316846001600160a01b0316148061210557506001600160a01b0380821660009081526005602090815260408083209388168352929052205460ff165b806121295750836001600160a01b031661211e84610964565b6001600160a01b0316145b949350505050565b826001600160a01b0316612144826110a6565b6001600160a01b03161461216a5760405162461bcd60e51b81526004016108a590613774565b6001600160a01b0382166121cc5760405162461bcd60e51b8152602060048201526024808201527f4552433732313a207472616e7366657220746f20746865207a65726f206164646044820152637265737360e01b60648201526084016108a5565b6121d98383836001612614565b826001600160a01b03166121ec826110a6565b6001600160a01b0316146122125760405162461bcd60e51b81526004016108a590613774565b600081815260046020908152604080832080546001600160a01b03199081169091556001600160a01b0387811680865260038552838620805460001901905590871680865283862080546001019055868652600290945282852080549092168417909155905184937fddf252ad1be2c89b69c2b068fc378daa952ba7f163c4a11628f55a4df523b3ef91a4505050565b6122ac8282611269565b610c95576000828152600a602090815260408083206001600160a01b03851684529091529020805460ff191660011790556122e43390565b6001600160a01b0316816001600160a01b0316837f2f8788117e7eff1d82e926ec794901d17c78024a50270940304540a733656f0d60405160405180910390a45050565b6123328282611269565b15610c95576000828152600a602090815260408083206001600160a01b0385168085529252808320805460ff1916905551339285917ff6391f5c32d9c69d2a47ea670b442974b53935d1edc7fd64eb21e047a839171b9190a45050565b6002600b54036123e15760405162461bcd60e51b815260206004820152601f60248201527f5265656e7472616e637947756172643a207265656e7472616e742063616c6c0060448201526064016108a5565b6002600b55565b610c95828260405180602001604052806000815250612620565b816001600160a01b0316836001600160a01b0316036124635760405162461bcd60e51b815260206004820152601960248201527f4552433732313a20617070726f766520746f2063616c6c65720000000000000060448201526064016108a5565b6001600160a01b03838116600081815260056020908152604080832094871680845294825291829020805460ff191686151590811790915591519182527f17307eab39ab6107e8899845ad3d59bd9653f200f220920489ca2b5937696c31910160405180910390a3505050565b6124db848484612131565b6124e784848484612653565b6118145760405162461bcd60e51b81526004016108a5906137b9565b6060600061251083612754565b600101905060008167ffffffffffffffff811115612530576125306130b1565b6040519080825280601f01601f19166020018201604052801561255a576020820181803683370190505b5090508181016020015b600019016f181899199a1a9b1b9c1cb0b131b232b360811b600a86061a8153600a850494508461256457509392505050565b60006001600160e01b0319821663780e9d6360e01b148061083757506108378261282c565b6125c58282611269565b610c95576125d28161287c565b6125dd83602061288e565b6040516020016125ee92919061380b565b60408051601f198184030181529082905262461bcd60e51b82526108a591600401612f4b565b61181484848484612a31565b61262a8383612b5e565b6126376000848484612653565b610a9b5760405162461bcd60e51b81526004016108a5906137b9565b60006001600160a01b0384163b1561274957604051630a85bd0160e11b81526001600160a01b0385169063150b7a0290612697903390899088908890600401613880565b6020604051808303816000875af19250505080156126d2575060408051601f3d908101601f191682019092526126cf918101906138bd565b60015b61272f573d808015612700576040519150601f19603f3d011682016040523d82523d6000602084013e612705565b606091505b5080516000036127275760405162461bcd60e51b81526004016108a5906137b9565b805181602001fd5b6001600160e01b031916630a85bd0160e11b149050612129565b506001949350505050565b60008072184f03e93ff9f4daa797ed6e38ed64bf6a1f0160401b83106127935772184f03e93ff9f4daa797ed6e38ed64bf6a1f0160401b830492506040015b6d04ee2d6d415b85acef810000000083106127bf576d04ee2d6d415b85acef8100000000830492506020015b662386f26fc1000083106127dd57662386f26fc10000830492506010015b6305f5e10083106127f5576305f5e100830492506008015b612710831061280957612710830492506004015b6064831061281b576064830492506002015b600a83106108375760010192915050565b60006001600160e01b031982166380ac58cd60e01b148061285d57506001600160e01b03198216635b5e139f60e01b145b8061083757506301ffc9a760e01b6001600160e01b0319831614610837565b60606108376001600160a01b03831660145b6060600061289d836002613736565b6128a89060026135d0565b67ffffffffffffffff8111156128c0576128c06130b1565b6040519080825280601f01601f1916602001820160405280156128ea576020820181803683370190505b509050600360fc1b81600081518110612905576129056135e3565b60200101906001600160f81b031916908160001a905350600f60fb1b81600181518110612934576129346135e3565b60200101906001600160f81b031916908160001a9053506000612958846002613736565b6129639060016135d0565b90505b60018111156129db576f181899199a1a9b1b9c1cb0b131b232b360811b85600f1660108110612997576129976135e3565b1a60f81b8282815181106129ad576129ad6135e3565b60200101906001600160f81b031916908160001a90535060049490941c936129d4816138da565b9050612966565b508315612a2a5760405162461bcd60e51b815260206004820181905260248201527f537472696e67733a20686578206c656e67746820696e73756666696369656e7460448201526064016108a5565b9392505050565b6001811115612aa05760405162461bcd60e51b815260206004820152603560248201527f455243373231456e756d657261626c653a20636f6e7365637574697665207472604482015274185b9cd9995c9cc81b9bdd081cdd5c1c1bdc9d1959605a1b60648201526084016108a5565b816001600160a01b038516612afc57612af781600880546000838152600960205260408120829055600182018355919091527ff3f7a9fe364faab93b216da50a3214154f22a0a2b415b23a84c8169e8b636ee30155565b612b1f565b836001600160a01b0316856001600160a01b031614612b1f57612b1f8582612cf7565b6001600160a01b038416612b3b57612b3681612d94565b610b28565b846001600160a01b0316846001600160a01b031614610b2857610b288482612e43565b6001600160a01b038216612bb45760405162461bcd60e51b815260206004820181905260248201527f4552433732313a206d696e7420746f20746865207a65726f206164647265737360448201526064016108a5565b6000818152600260205260409020546001600160a01b031615612c195760405162461bcd60e51b815260206004820152601c60248201527f4552433732313a20746f6b656e20616c7265616479206d696e7465640000000060448201526064016108a5565b612c27600083836001612614565b6000818152600260205260409020546001600160a01b031615612c8c5760405162461bcd60e51b815260206004820152601c60248201527f4552433732313a20746f6b656e20616c7265616479206d696e7465640000000060448201526064016108a5565b6001600160a01b038216600081815260036020908152604080832080546001019055848352600290915280822080546001600160a01b0319168417905551839291907fddf252ad1be2c89b69c2b068fc378daa952ba7f163c4a11628f55a4df523b3ef908290a45050565b60006001612d0484611106565b612d0e9190613761565b600083815260076020526040902054909150808214612d61576001600160a01b03841660009081526006602090815260408083208584528252808320548484528184208190558352600790915290208190555b5060009182526007602090815260408084208490556001600160a01b039094168352600681528383209183525290812055565b600854600090612da690600190613761565b60008381526009602052604081205460088054939450909284908110612dce57612dce6135e3565b906000526020600020015490508060088381548110612def57612def6135e3565b6000918252602080832090910192909255828152600990915260408082208490558582528120556008805480612e2757612e276138f1565b6001900381819060005260206000200160009055905550505050565b6000612e4e83611106565b6001600160a01b039093166000908152600660209081526040808320868452825280832085905593825260079052919091209190915550565b6001600160e01b03198116811461101057600080fd5b600060208284031215612eaf57600080fd5b8135612a2a81612e87565b80358015158114612eca57600080fd5b919050565b60008060408385031215612ee257600080fd5b82359150612ef260208401612eba565b90509250929050565b60005b83811015612f16578181015183820152602001612efe565b50506000910152565b60008151808452612f37816020860160208601612efb565b601f01601f19169290920160200192915050565b602081526000612a2a6020830184612f1f565b600060208284031215612f7057600080fd5b5035919050565b80356001600160a01b0381168114612eca57600080fd5b60008060408385031215612fa157600080fd5b612faa83612f77565b946020939093013593505050565b600080600060408486031215612fcd57600080fd5b83359250602084013567ffffffffffffffff811115612feb57600080fd5b8401601f81018613612ffc57600080fd5b803567ffffffffffffffff81111561301357600080fd5b86602082840101111561302557600080fd5b939660209190910195509293505050565b60008060006060848603121561304b57600080fd5b61305484612f77565b925061306260208501612f77565b929592945050506040919091013590565b60006020828403121561308557600080fd5b612a2a82612f77565b600080604083850312156130a157600080fd5b82359150612ef260208401612f77565b634e487b7160e01b600052604160045260246000fd5b60008067ffffffffffffffff8411156130e2576130e26130b1565b50604051601f19601f85018116603f0116810181811067ffffffffffffffff82111715613111576131116130b1565b60405283815290508082840185101561312957600080fd5b83836020830137600060208583010152509392505050565b600082601f83011261315257600080fd5b612a2a838335602085016130c7565b6000806000806080858703121561317757600080fd5b61318085612f77565b9350602085013567ffffffffffffffff81111561319c57600080fd5b6131a887828801613141565b935050604085013567ffffffffffffffff8111156131c557600080fd5b6131d187828801613141565b925050606085013567ffffffffffffffff8111156131ee57600080fd5b6131fa87828801613141565b91505092959194509250565b6000806040838503121561321957600080fd5b61322283612f77565b9150612ef260208401612eba565b6000806000806080858703121561324657600080fd5b61324f85612f77565b935061325d60208601612f77565b925060408501359150606085013567ffffffffffffffff81111561328057600080fd5b8501601f8101871361329157600080fd5b6131fa878235602084016130c7565b6000806000606084860312156132b557600080fd5b505081359360208301359350604090920135919050565b600080604083850312156132df57600080fd5b6132e883612f77565b9150612ef260208401612f77565b8881526001600160a01b03881660208201526101006040820181905260009061332190830189612f1f565b82810360608401526133338189612f1f565b905086608084015285151560a084015260ff851660c084015282810360e084015261335e8185612f1f565b9b9a5050505050505050505050565b600181811c9082168061338157607f821691505b6020821081036133a157634e487b7160e01b600052602260045260246000fd5b50919050565b601f821115610a9b57806000526020600020601f840160051c810160208510156133ce5750805b601f840160051c820191505b81811015610b2857600081556001016133da565b67ffffffffffffffff831115613406576134066130b1565b61341a83613414835461336d565b836133a7565b6000601f84116001811461344e57600085156134365750838201355b600019600387901b1c1916600186901b178355610b28565b600083815260209020601f19861690835b8281101561347f578685013582556020948501946001909201910161345f565b508682101561349c5760001960f88860031b161c19848701351681555b505060018560011b0183555050505050565b6020808252602d908201527f4552433732313a2063616c6c6572206973206e6f7420746f6b656e206f776e6560408201526c1c881bdc88185c1c1c9bdd9959609a1b606082015260800190565b815167ffffffffffffffff811115613515576135156130b1565b61352981613523845461336d565b846133a7565b6020601f82116001811461355d57600083156135455750848201515b600019600385901b1c1916600184901b178455610b28565b600084815260208120601f198516915b8281101561358d578785015182556020948501946001909201910161356d565b50848210156135ab5786840151600019600387901b60f8161c191681555b50505050600190811b01905550565b634e487b7160e01b600052601160045260246000fd5b80820180821115610837576108376135ba565b634e487b7160e01b600052603260045260246000fd5b60ff8181168382160190811115610837576108376135ba565b634e487b7160e01b600052601260045260246000fd5b600060ff83168061363b5761363b613612565b8060ff84160691505092915050565b60006001820161365c5761365c6135ba565b5060010190565b60008151613675818560208601612efb565b9290920192915050565b66697066733a2f2f60c81b8152600080845461369a8161336d565b6001821680156136b157600181146136cc57613702565b60ff1983166007870152600782151583028701019350613702565b87600052602060002060005b838110156136f7578154888201600701526001909101906020016136d8565b505060078287010193505b505050602f60f81b815261372d61371c6001830186613663565b64173539b7b760d91b815260050190565b95945050505050565b8082028115828204841417610837576108376135ba565b60008261375c5761375c613612565b500490565b81810381811115610837576108376135ba565b60208082526025908201527f4552433732313a207472616e736665722066726f6d20696e636f72726563742060408201526437bbb732b960d91b606082015260800190565b60208082526032908201527f4552433732313a207472616e7366657220746f206e6f6e20455243373231526560408201527131b2b4bb32b91034b6b83632b6b2b73a32b960711b606082015260800190565b7f416363657373436f6e74726f6c3a206163636f756e7420000000000000000000815260008351613843816017850160208801612efb565b7001034b99036b4b9b9b4b733903937b6329607d1b6017918401918201528351613874816028840160208801612efb565b01602801949350505050565b6001600160a01b03858116825284166020820152604081018390526080606082018190526000906138b390830184612f1f565b9695505050505050565b6000602082840312156138cf57600080fd5b8151612a2a81612e87565b6000816138e9576138e96135ba565b506000190190565b634e487b7160e01b600052603160045260246000fdfea49807205ce4d355092ef5a8a18f56e8913cf4a201fbe287825b095693c21775a164736f6c634300081c000a",
  "linkReferences": {},
  "deployedLinkReferences": {}
}